:10000000008000208D1E0010790100107B0100107F
:100010007D0100107F01001081010010025AFF7F56
:10002000000000000000000000000000830100103C
:1000300085010010000000008701001089010010F8
:100040008B010010B98200108B010010000000002D
:100050008B0100108B0100108B0100108B01001030
:100060007D9000108B0100108B0100108B0100109F
:100070008B0100108B0100108B0100108B01001010
:100080008B0100108B010010BD2300108B010010AC
:100090008B0100108B0100108B010010992B0010B8
:1000A000652C00108B0100108B0100108B010010DB
:1000B0008B0100108B0100108B0100108B010010D0
:1000C0008B0100108B0100108B0100108B010010C0
:1000D0008B0100108B0100108B0100108B010010B0
:1000E0008B0100108B0100108B0100108B010010A0
:1000F000000000008B0100108B0100108B0100102C
:10010000000000008B0100108B0100108B0100101B
:100110008B01001040800110408001100809000090
:10012000C85D01100000002000000000C85D011043
:100130000000081000000000C85D011000800020D1
:10014000782200004080011000C000200000000064
:1001500000900110440B000000000020000000008F
:10016000000008100000000078A20020000000003D
:1001700000C0002000000000FEE7FEE7FEE7FEE70B
:10018000FEE7FEE7FEE7FEE7FEE7FEE710B50B46FB
:10019000401A5C1AA24203D9C45843F8044BF8E74A
:1001A00010BD10B5034600221C1AA14202D943F823
:1001B000042BF9E710BD01717047002310B50362ED
:1001C0004FF6FF73838247F6FF734382038283886F
:1001D00040F2FF1262F3CB038380438962F3CB03C7
:1001E00004464381A06920B18368A36101F0F0FD5A
:1001F000F8E704F11803E36110BD10B503460022CF
:1002000043F8182F0446C361FFF7D7FF204610BDFF
:10021000438923F007031B051B0D40F6F8718B4241
:1002200002460BD0034640F2FF1153F80A0F50600C
:100230009B881381538961F3CB035381704710B5B9
:10024000B0F910408C42C8BF0182B0F9121091423F
:10025000C8BF4282B0F914209A42B8BF838210BD51
:1002600038B50A888B880D464988C3F30903C2F361
:10027000C802C1F309010446FFF7E1FF438923F0F7
:1002800007031B051B0D40F6F87293420DBF2B6848
:10029000AA88C389C0F80A3007BFAB88C38162F35C
:1002A0000903C381AB88C3F309026B88C3F3090355
:1002B000013BD31A026A134403620B4B1B7893B1C0
:1002C0000A490C200DF09AFEE269034628B128681D
:1002D0001860A9889980002199601360E3691B6800
:1002E0000BB10833E36138BD04900110F0560110E2
:1002F000026A38B50B6A13440C46B1F91220036246
:10030000B1F91430B1F91010FFF799FF2289038970
:10031000C2F30902C3F309018A42C4BF62F30903AD
:100320000381074B1B784BB1C369A2691A60E3696B
:10033000C3612346002243F8182FE36138BD00BF94
:100340000490011010B50446606840B1FFF760FFEB
:10035000636821691A68196023616260F4E710BD5F
:10036000196011601A46096819B1096812680029F4
:10037000F9D111681960002313607047F0B5059C2E
:100380008C462046B4B1DCF800509DB11F6840B1E6
:10039000166836B1316A8E46296A8E4501DD3E60A7
:1003A0000DE03D601D682D681D602D68CCF8005083
:1003B000013CE7E750B1156845B11E6835601D681E
:1003C0002D681D602D6815600138DBE7F0BDF0B5C4
:1003D000016989B0044600292ED003AB02AAFFF7B9
:1003E000BFFF01250027039B23B304AB08AE069390
:1003F00005AB46F8043D04970597029B0BB9039B98
:1004000073B106AB03AA02A920460095FFF7B6FF19
:100410000095334603AA02A92046FFF7AFFFECE799
:10042000069A07990B601360049B0293059B039344
:100430006D00D8E7029B236109B0F0BD00234FF6A1
:10044000FF7270B50446836002808361256945B1FF
:1004500028462E68FFF7B1FE284601F0B9FC266158
:10046000F4E770BD70B505460E46346894B1204679
:10047000FFF7CEFEA388B5F90020C3F3C803D31A53
:10048000B5F91420934205DD236833602B6923609E
:100490002C61EAE770BD38B50446051D2946FFF713
:1004A000E1FF6168E560A16021B12046BDE8384008
:1004B000FFF7D8BF38BD8268C2601168816009B19A
:1004C000FFF7D0BF7047FFFF0B88B0F90020C3F3E0
:1004D000C80370B50E4699B29142044602D003801B
:1004E000FFF7D9FFA06888B372880389C2F30902B5
:1004F000C3F309039A4203DD2046FFF7DCFFF1E76F
:10050000B288C388C2F30902C3F309039A421DDB10
:100510003146FFF7A5FEA06805685DB3B288EB8899
:10052000C2F30902C3F309039A4223DB2B68036079
:100530002946FFF7DDFE2846FFF73FFE284601F07B
:1005400047FCA1682046FFF78DFFE4E70E49242011
:100550000DF054FD054678B1FFF74FFEA369013356
:10056000A361A3682B60E36831461D602846E560FF
:10057000FFF776FE002070BDA169044806F08CFFED
:100580004FF0FF3070BD00BFF0560110C4280110BD
:10059000642998BFA0F8E010A0F8E220C0F8E83085
:1005A00000207047F0B5002585B004462F464FF077
:1005B000FF3601A9D4F8C80002F0DCF90028F8D011
:1005C000019B5A1C37D001350BB90136F1E79DF874
:1005D000082013F0070063F302028DF80820E8D02A
:1005E000002FE6D1BDF80820BDF80A1066F3CB0253
:1005F000ADF80820C3F3C8021B0B0193C3F3080333
:1006000062F309011344BDF80C20ADF80A1063F33E
:10061000090201381C2303FB004002A90430ADF895
:100620000C20FFF751FF0028C3DA2946084806F0DE
:1006300033FF0127BDE7251DC8342846FFF782FE9A
:1006400028461C35FFF7C3FEA542F6D105B0F0BD24
:10065000CE280110F0B5B0F8D45019B985B1D0F852
:10066000CC3010E000220A27AA420BDA07FB02F482
:10067000D0F8CC603319345B8C4204D00132F3E7FC
:100680002B4600E000231846F0BDD0F8CC300B60BC
:10069000B0F8D43013607047002070B503460446AC
:1006A00004EB84069442B6B218D001EB460531F84B
:1006B00016602EB90130002B08BF2B4680B20AE02D
:1006C0004BB11E806E885E80AE889E80EE88DE8094
:1006D0002D891D810A330134A4B2E1E770BD2DE9F3
:1006E000F04F02EB820285B093B2002001930246E4
:1006F0008146019B934242D031F8123001EB420413
:10070000002B36D0A3886688B4F806E0B4F808C099
:100710000293531D019D9BB29D422AD031F8137064
:100720004FEA430B01EB0B050FB36F88B5F804A03C
:10073000B5F806802D890395BE420CD8029D55451B
:100740001AD3C64505D8039DAC4502D321F80B90BA
:100750000BE0BE420BD3029D554508D8C64506D3D3
:10076000039DAC4503D8A4F80090013080B2053356
:10077000D0E7053292B2BCE7BE42F8D3EEE705B04F
:10078000BDE8F08F2DE9F04F89B002EB82020290B4
:1007900093B2002003930090039B009A934200F0D1
:1007A0008F8031F812405300002C7ED09C1C0D1914
:1007B00031F804E004951C1D0D1931F804C00595AD
:1007C0009C1D0D19083306950C5B31F80380CD187C
:1007D0000795134605339BB20193019D039BAB42E2
:1007E00063D02B464FEA450931F8133001EB090578
:1007F000002B58D06E88AF88EB882D89B64511D371
:10080000029AB2F8ECB0C7EB0E0ADA450ADC9C4259
:1008100001D8984503D2AC4204D8A84502D3049B22
:100820001E803AE0BC4511D8029AB2F8ECB0CCEB8D
:10083000060ADA450ADC9C423CD8984503D2AC4211
:1008400004D8A84539D3059B1F8026E09C4211D3CC
:10085000029AB2F8ECB0C5EB040ADA450ADCB645F8
:1008600001D8B44503D2BE4504D8BC4502D3069A8C
:10087000138012E0A84516D8029AB2F8ECA0C8EB93
:10088000030353450FDCB64501D8B44503D2BE453A
:1008900009D8BC4507D3079B1D804FF000030130EA
:1008A00021F8093080B2019B94E7009A053293B297
:1008B000009371E7AC42C4D9CAE79C42DCD3C7E7D6
:1008C00009B0BDE8F08FFFFF2DE9F84F044601267F
:1008D0000025FFF767FE84F8DE60A4F8D4501C23DF
:1008E000B4F8D470D4F8CCC003FB064307EB8702FE
:1008F00053F8083C0CEB42084FF0000E63B3B4F819
:10090000D400B4F8E010884226D2B4F8E2108E4544
:1009100022D2D4F8E800196A884219DC9888B3F822
:1009200010B0B3F81290B3F814A02CF812600CEBCE
:100930004201C0F3C800A1F802B0A1F804A0A1F8D8
:1009400006900881B4F8D4100131A4F8D41005320F
:100950001B680EF1010ED1E7B4F8D420D21B92B27D
:1009600041462046FFF70EFF10B10544ADB2F3E754
:100970000136082EB3D1B4F8D420D4F8CC102046D8
:10098000FFF7ADFE284485B29DB1D4F8CC10B4F881
:10099000D4202046FFF780FEB4F8D4308542A3EB84
:1009A00000030146A4F8D43003D02A46084806F0D4
:1009B00073FD0023A4F8E43084F8DE30251DC8342C
:1009C00028461C35FFF73AFDAC42F9D1BDE8F88F57
:1009D000DC280110002242600260C2608260426135
:1009E0000261C261826170472DE9F04304468BB019
:1009F00016469946002202A88846ADF80620ADF8B2
:100A00000420ADF80220ADF80020129D139FFFF7DF
:100A1000E1FF32464B466946206800F06BFE3246E5
:100A20006B4602A9206800F03BFC0646B0B1414687
:100A3000206800F04FFE424602A9206800F01EFE2A
:100A40001FB16B4603CB3860796055B102AC0FCC57
:100A50000FC594E80F0085E80F0002E04FF0FF306B
:100A600000E030460BB0BDE8F08370B512F0010F26
:100A7000049E059D069C01F001010FD039B11A7842
:100A8000326013F8012C2A60C0431B5C16E013F897
:100A9000012C32601A782A601B1A0EE039B1181A3C
:100AA000027832601A782A6013F8013C06E0C043ED
:100AB0001A5C326013F8012C2A601B78236070BD29
:100AC0002DE9F04F1E4B8BB04FF000091B680590CD
:100AD0008A46904604934E464F4661244FF4A073D5
:100AE00003FB04FB9D2509AA029208AA019207AA0A
:100AF0000092049A05EB0B031344294622464FF457
:100B0000A070FFF7B2FF079B1F44089B01351E44EE
:100B1000099BA32D9944E6D10134672CDED10599B8
:100B20002423B7FBF3F20A70B6FBF3F2B9FBF3F33D
:100B30008AF8002088F800300BB0BDE8F08F00BFC5
:100B40009090011070B50B7815780478AB4228BFEF
:100B50002B46A34228BF234603EB4303C3F387037B
:100B6000E41A04700C78E41A0C701478E31ADBB2FF
:100B7000137005780C78A5422E4638BF26469E4253
:100B800038BF1E4607EE906AB8EEE77ADFED127ABC
:100B9000C7EE876A07EE905AB8EEE77A27EE267A14
:100BA000FCEEC77A17EE905A07EE904AB8EEE77A55
:100BB000057027EE267AFCEEC77A17EE900A07EE4C
:100BC000903AF8EEE77A087067EEA67AFCEEE77ADC
:100BD00017EE903A137070BD00007F431FB5437845
:100BE000ADF804309D23ADF80630A323ADF80830EE
:100BF0006123ADF80A3012486723ADF80C300123A9
:100C00001A4601A9006800F0E7FF0DF103020DF19B
:100C100002010DF10100FFF753FF0DF103020DF189
:100C200002010DF10100FFF78DFF0DF103020DF13F
:100C300002010DF1010005F05FFB05B05DF804FB5A
:100C4000C890011013B501A80C4606F02DF80198C4
:100C500006F030F8A042FAD306F0C2FB02B010BD95
:100C600013B5044602A8002340F8043D05F058FBE4
:100C70004EF660212046FFF7E5FF6078034B03EB5B
:100C8000800005F04DFB02B010BD00BF2C2F0110FD
:100C900037B500240546047202A840F8044D05F05B
:100CA0003FFB2C7003B030BD10B50446FFF7F0FFDA
:100CB000204610BD2DE9F34100240F4E054688461D
:100CC0002746444514DA01A8019705F029FB4EF6A2
:100CD00060212846FFF7B6FF687806EB800005F034
:100CE0001FFB4EF660212846FFF7ACFF0134E8E712
:100CF00002B0BDE8F08100BF2C2F011073B5A02316
:100D000002ADADF80030642325F8043D144B0646CF
:100D10001B682A466946013000F080FF041E1CDD76
:100D20002146104806F0B8FB05F052FA07EE904A4B
:100D30009FED0D7A0190F8EEE77A684667EE877AC4
:100D4000FCEEE77ACDED007A05F000FB3046042199
:100D5000FFF7B0FF284605F0F9FA02B070BD00BFFA
:100D6000C8900110E8280110000048434378072B81
:100D700001D8FFF775BF704730B5044689B005F05C
:100D800055FF237A05460BB321238DF81530002338
:100D90000293ADF81630ADF81830624B4FF4A072E4
:100DA0001B68ADF81A200193C82207ABADF81C20D0
:100DB000009306AA0DF11A030DF116010DF11500AD
:100DC00004F0CEF82046FFF709FF1FE02278EAB1D1
:100DD000ADF81630ADF818304FF4A073ADF81A30F6
:100DE000C823ADF81C30012302934E4B1B680193BE
:100DF000212207AB8DF81520009306AA0DF11A03E6
:100E00000DF116010DF1150004F0AAF82378052B59
:100E10007FD8DFE803F00311244C5A7D002D7BD0EE
:100E2000201D05F041FF012308A82370002340F88E
:100E3000043D05F075FA6FE00DB925706CE060684F
:100E400005F038FF384B984266D900236370201DA7
:100E500005F02AFF2046FFF789FF02232CE095B911
:100E600003212046FFF726FF201D05F01DFF6278B5
:100E700001232AB908A800F8043D03F0A1FF00E00F
:100E80002372032318E0606805F014FF274B984293
:100E900042D9201D05F008FF63780133DBB2082B2F
:100EA00008BF002363702046FFF760FF34E02DB1D8
:100EB000201D05F0F9FE042323702DE0606805F085
:100EC000F9FE1B4B984227D923E07DB963784BB9D3
:100ED00008A800F8045D03F073FF04212046FFF723
:100EE000E9FE16E02046FFF709FF12E0606805F012
:100EF000E1FE0D4B98420FD9637823B908A800F89A
:100F0000043D03F05DFF2046FFF7C2FE0523D3E753
:100F100015B92046FFF7BCFE2078003018BF01202D
:100F200009B030BDC8900110D012130040420F002C
:100F30000087930301292DE9F04704460F464FDD52
:100F4000DFF8A480DFF8A490061D05F06FFE0546CB
:100F500006F046FA94F800A0BAF1010F0AD003D3C4
:100F6000BAF1020F18D037E0304605F09DFE01239C
:100F700023702DE055B1304605F096FE84F801A0AF
:100F80002046FFF76DFE02232370DEE7606805F060
:100F900091FE4045D9D901E055B965780421204634
:100FA000FFF788FE2046FFF773FE2846BDE8F0876E
:100FB000606805F07FFE4845C7D9304605F074FEED
:100FC00063780133DBB27A1C934208BF012363705C
:100FD0002046FFF7CBFEB8E72046FFF759FEB4E7FF
:100FE0000020BDE8F08700BF60E3160040420F001C
:100FF00038B50D460446002C08DB204608F0E4FE18
:1010000008B12C6038BDA4F58074F4E70020286096
:1010100038BD1FB50DF1100E0EE903008DE80C0070
:10102000DDED027A9DED007ADDED016A37EEC77ADB
:10103000DDED037A77EEE67A67EEA77AE7EE077AD8
:1010400017EE900A08F030FA0EF08AF908F0B2FCB8
:1010500005B05DF804FB538843F001032DE9F0432C
:101060009CB21388B1F9045043F001039BB205FB15
:1010700004330C6823440024A646D588AE452FD2FD
:10108000C568AC422CD24FEA440C00259688B54284
:10109000B1F904601FD2C768BC421CD25F1913F8B3
:1010A000059017F8017CAE1BC7EB09099F199E5DDF
:1010B00017F8017CC6EB070805EB0C0647684FEAFA
:1010C000690907F8069047683E444FEA6807777059
:1010D00002350134DAE70EF1020E03EB4603CCE7EA
:1010E0008460BDE8F083FFFFD1ED007AFDEEE77A82
:1010F00010B517EE900A0C4608F038FE07EE900A7D
:10110000B8EEE77ADFED097AB4EEE77AF1EE10FA9D
:101110000BD594ED007AB5EEC07AF1EE10FA02DD4F
:10112000C4ED007A10BD024B236010BD6F12833AEC
:101130006F1283BA37B5DFED247A8368CDED007A7C
:101140000D4600210446CDED017AB0EE677A0A46DD
:101150009A4215D0616801EB420011F9121006EEB7
:10116000901A90F90110F8EEE66A013237EE267A0D
:1011700006EE901AF8EEE66A012177EEA67AE7E726
:1011800019B18DED007ACDED017A07EE903ADDEDE3
:10119000006AF8EE677A694686EEA77A2046DDEDAA
:1011A000016A8DED007A86EEA77A8DED017AFFF760
:1011B0009BFF01A92046FFF797FF009B2B60019B37
:1011C0006B6003B030BD00BF0000000070B50023AD
:1011D000856806EE902A1A46AA4225D0446891ED09
:1011E000006A91ED017A04EB420614F9124007EE11
:1011F000904A96F90140F8EEE77AF5EEC06AA7EE5C
:10120000867A07EE904AF8EEE77AF1EE10FAB4EE3D
:10121000E77A03DDF1EE10FA04DD02E0F1EE10FAF8
:1012200000D501330132D7E7184670BD70B52DEDFA
:10123000048B08EE103AB5EEC08AFFEE007AF1EEAC
:1012400010FAB7EE007A82B054BF17EE104A17EECC
:10125000904AD0ED027A90ED099A8DE80600F8EEFA
:10126000678A05466E46224631462846FFF7AEFF9E
:1012700007EE900AB8EE677AC7EE287AF4EEC97ADC
:10128000F1EE10FADDED017A04DA77EE887ACDED31
:10129000017AE8E717EE900A02B0BDEC048B70BD4E
:1012A0002DE9F04F2DED068B89B0044600260D4642
:1012B00000F10C0144F6206017469846039602960A
:1012C000FFF796FE6060002800F08881E168490819
:1012D0004246E16020463946FFF7BDFE02A920469E
:1012E000FFF728FF029808F0DFF880468946039848
:1012F00008F0DAF842464B460DF034FF08F05AFB8E
:1013000008EE900A08F0D0F8804689460DF06CFE91
:1013100008F050FB494609EE900A40460DF0B0FE39
:1013200008F048FB49460AEE100A40460DF0ECFE74
:1013300008F040FBDFEDAD7A059678EEA77A08EE6F
:10134000100A17EE900A08F0AFF882468B460DF0AF
:10135000DBFE08F02FFB9DED027ADDED037A0690AF
:1013600009EE100AE9EE477A0DF12008F0EE67AABF
:10137000D4ED047A87EEA97A17EE100A08F094F8F3
:101380000DF07AFE08F016FB18EE103A48F8103D02
:101390008146034698E806002046FFF747FFD4ED54
:1013A000057A08EE900A68EEA77A17EE900A08F020
:1013B0007BF80DF061FE06460F4618EE900A08F025
:1013C00073F832463B4607F011FF08F0F3FA89F054
:1013D000004398E80600686085ED008A2046FFF724
:1013E00025FFD4ED057A08EE900A68EEA77A17EE8D
:1013F000900A08F059F80DF03FFE06460F4618EE29
:10140000900A08F051F832463B4607F0EDFE08F02E
:10141000D1FAB5EEC0AAF1EE10FAF7EE007ABFEEFF
:10142000007AE86085ED028A54BF17EE900A17EE45
:10143000100A08F039F8064620690F4608F034F81B
:1014400080468946504659460DF0CEFD02460B4671
:101450004046494608F0A6F90DF00EFE02460B463E
:101460003046394608F074F808F0A4FA0DF1180A6D
:10147000CDED07AA80F000439AE806008346204697
:10148000FFF7D4FE08EE900AD4ED067A38EEEA7A39
:1014900067EE277A17EE900A08F006F80DF0ECFDDB
:1014A00002460B4618EE900ACDE9002307F0FCFF38
:1014B000DDE90023804689463046394608F048F881
:1014C00002460B464046494607F08EFE08F072FA87
:1014D00078EE496A07EE100AC7EE267A5B469AE86C
:1014E00006002046DDED038ADDED026A28EE278A3C
:1014F0006AEE288A28EE0A8AE9EEA68AA9EEA78A69
:10150000D4ED076A85ED049AF4EEC86AF1EE10FA9C
:10151000C2BF69EEA69A29EE697AAAEE267A85ED0F
:10152000057AFFF783FED4ED067A94ED087A08EE8B
:10153000100A27EE277A78EE6A7A67EE277A17EE96
:10154000900A07F0B1FF0DF097FD02460B463046BA
:10155000394607F0FDFF064618EE100A0F4607F061
:10156000A3FF02460B463046394607F03FFE08F01F
:1015700021FAD5ED057AE86107EE100AB4EEE77AB4
:10158000F1EE10FA85ED069A0BDD2B4605F11802F7
:1015900092E8030053F8106F83E80300AE61C5EDD5
:1015A000077A606808F018FCD4ED077A9FED107A8E
:1015B00078EEE78ADFED0F7A68EEA78AF2EE047A1A
:1015C000E8EE877AFDEEE77A17EE900A002803DB53
:1015D000642805DD642003E0002001E04FF0FF30C7
:1015E00009B0BDEC068BBDE8F08F00BFDA0FC93F34
:1015F0000000803C0000C842C1614261836100205C
:10160000704792F9003091ED006AD1ED016A07EE62
:10161000103A92F90130B8EEC77A07EE903AE6EE4A
:10162000076AF8EEE77AF4EEE76AF1EE10FA23D4EF
:1016300091ED026AD1ED036AE7EE066AF4EEE67A0E
:10164000F1EE10FA18D491ED046AD1ED056AE7EED7
:10165000066AF4EEE67AF1EE10FA0DDC91ED066A18
:10166000D1ED076AE7EE066AF4EEE67AF1EE10FADB
:1016700054BF01200020704700207047D1ED007A50
:10168000F5EE407AF1EE10FA2DE9F34106460F46E9
:1016900015461CD00024230A8DF8043033688DF8D9
:1016A000054003EB04081B5D13F0070301D0AB42B8
:1016B00005DB01AA39463046FFF7A3FF20B9013404
:1016C000B4F5803FE7D102E088F80050F7E702B0B8
:1016D000BDE8F081002330B51D46046821B1E25C0D
:1016E00002F007028A4200D1E5540133B3F5803F8E
:1016F000F3D130BD2DE9F04F2DED028B8BB00024DE
:1017000006460F46904600F10C01002244F6206088
:101710001D460392029205920492ADF81E40ADF868
:101720001C40ADF81A40ADF81840ADF82640ADF8B1
:101730002440ADF82240ADF82040FFF759FC70601E
:10174000002800F06281F2686B88B8F90410520832
:10175000F2602A88042A84BF141FA4B20822042B32
:1017600088BF043B04EB02008CBF9BB20023ADF8A2
:1017700024208842ADF82620B8F90620ADF8204094
:10178000C8BF0C1B03F10801C8BFADF8244091424B
:10179000ADF822304146C8BFD31A304608AA0DF131
:1017A000080AC8BFADF82630FFF755FC5146304651
:1017B000FFF7C0FC00240DF1100B0025B3EE048AE6
:1017C00044FA05F919F0010940F01A81EBB2A5B904
:1017D000BDF82030042B84BF043BADF81830BDF8B1
:1017E0002230ADF81A304FF004039CBFADF818500A
:1017F00044F00104ADF81C303AE0012B19D1BDF8DA
:101800002220042A9CBFAB401C43BDF82030ADF819
:10181000183088BF043ABDF82430ADF81C308EBFB4
:10182000ADF81A20ADF81A90E4B20423ADF81E30DA
:1018300042E0022B1FD1BDF82000BDF82410B8F9FA
:101840000430421802F1030E9E4508DB1B1A5B1A96
:10185000ADF81C300123AB401C43E4B202E004238A
:10186000ADF81C30BDF82230ADF81820ADF81A30B4
:10187000BDF82630DAE7BDF82200BDF82610B8F929
:101880000630421802F1030E9E4508DB1B1A5B1A54
:10189000ADF81E300123AB401C43E4B202E0042348
:1018A000ADF81E30BDF82030ADF81830BDF824304A
:1018B000ADF81A20ADF81C3006AA41463046FFF7B5
:1018C000CAFB59463046FFF735FC9BE80C009AE806
:1018D0000300FFF79EFB07EE900AF4EEC87AF1EEE4
:1018E00010FA01DCB36823B90123AB401C43E4B216
:1018F00036E0BDF81820BDF820E0724509D2ADF8F9
:101900002020BDF81C30BDF824201344ADF824304D
:1019100026E0BDF81A30BDF822108B4209D2BDF87E
:101920002620ADF82230BDF81E301344ADF8263025
:1019300016E0BDF81CC0BDF8240062448644724520
:1019400003DD6044ADF824000AE0BDF82620BDF8B0
:101950001E00114403448B42C4BF1218ADF8262068
:101960000F2C4DD108AB03CB7960BB88386007EEF4
:10197000903AF8EEE77AB6EE085A67EE857AF5EE19
:10198000005AFCEEE77AB6EE006ACDED017ABDF8BA
:101990000430BB8007EE903A3B887068B8EEE77A77
:1019A00006EE903A27EE257AF8EEE66AE7EE066A4A
:1019B000FCEEE67A17EE903A3B80FB8807EE103A91
:1019C000B8EEC77A27EE057AFCEEC77ACDED017A3C
:1019D000BDF80430FB8007EE903A7B88F8EEE77A9A
:1019E00007EE103A67EEA57AB8EEC77AA7EE867AC8
:1019F000FCEEC77A17EE903A7B8008F0EDF906E02E
:101A00000135042D7FF4DCAED7E64FF0FF394846B0
:101A10000BB0BDEC028BBDE8F08FFFFF30B5134B70
:101A2000134D002119602B688BB01868FFF752FE28
:101A3000012422460F4902A808F08CFD002301AAC8
:101A4000694602A805F038FB00280DDB2B680199D8
:101A50001868E2B20134FFF711FE082CE9D1064BF9
:101A6000186800F0A2FF00200BB030BD909001106C
:101A700008900110F52801100C900110F0B5A3B0EA
:101A80000AAE3046FEF7A6FF01252A46414912A8B4
:101A900008F060FD2A4640491AA808F05BFD0024C2
:101AA000202300930294019681231AAA012112A8EF
:101AB000013505F01CFB082DE7D14FF47A75009530
:101AC000214601940223354A3548364F05F00FFB75
:101AD00000952146142501940223334A334805F02A
:101AE00006FB0095214601940423314A314805F054
:101AF000FEFA314B02940022CDE9002321462B4609
:101B000000262E4A2E4805F0F2FA2B462146029472
:101B1000CDE900672B4A2C4805F0E9FA2B4621460F
:101B20000294CDE90067294A29482A4D05F0DFFAD9
:101B3000224606A9224805F0BFFA224607A92248F4
:101B400005F0BAFA224608A9214805F0B5FA286836
:101B5000089B079A06990068FFF74EFD224605A9E3
:101B60000F4805F0A9FA22460DF116010F4805F0BD
:101B7000A3FA224609A90F4805F09EFA099BBDF871
:101B80001620BDF814102868FEF702FDFFF746FF87
:101B900023B0F0BDF5280110492901105C2901107E
:101BA000992901100000F03FA4290110F929011022
:101BB000122A01107B2A011000002E408A2A0110EF
:101BC000182B0110272B0110A52B0110B02B011091
:101BD000352C01100890011010B58CB0002408912C
:101BE0000A214A435208079282220692C82205928D
:101BF000019342224FF4A071412304920391029277
:101C000000930A940994044B6422214603F0C4FC17
:101C100020460CB010BD00BF434342312DE9F041D6
:101C200094B006460CAD1F46284600230C46ADF87E
:101C30000E30ADF80C30ADF80A30ADF808309046F3
:101C4000FEF7C8FE31784B1E062B4DD8294A136883
:101C50002BB9294805F020FC6FF0010046E0274B26
:101C600024881868B8F80030ADF8123002AB019340
:101C7000009504ABADF81040FEF7B6FE041E01DA85
:101C80001F482DE0DFB1BDF80800BDF80A10BDF80F
:101C90000C20BDF80E3096F800E0ADF812000244BA
:101CA0000B44ADF81420ADF81610ADF81830012231
:101CB000032304A93846ADF810E0FFF78DFF327812
:101CC0001049002604A808F045FC2B46202281215B
:101CD000009604A805F0D4F9304605F071FA0A48D8
:101CE00005F0DAFB204601E04FF0FF3014B0BDE80C
:101CF000F08100BF9090011001290110089001109F
:101D00001A290110F52801103F29011008B5F8B172
:101D100048434CF25031B0FBF1F0C0B107EE900AED
:101D2000F8EEE77A17EE900A07F0BEFB0DF098FA8E
:101D30000022084B07F00CFC07F01CFEFF2803D81C
:101D4000002808BF012000E0FF20C0B208BD01202C
:101D500008BD00BF000049401A4B37B50021186884
:101D6000FEF778FC38B3838844881A1BC48803893B
:101D70001B1B03FB02F40288134B53F8225021462D
:101D8000E8B2FFF7C3FF21468DF80400C5F3072032
:101D9000FFF7BCFF21468DF80300C5F30740FFF7AE
:101DA000B5FF01AA8DF802000DF103010DF102004B
:101DB00004F0A2FA03E0019001A804F0B1FA03B024
:101DC00030BD00BF089001102C2F011007F0FCBFA0
:101DD00008F002B808F000B8FEE7FFFF012884B061
:101DE00046D880B9234B24481A680092009AD20141
:101DF0001AD5009AD24342F080720192019A026091
:101E00001A680092F2E71D4B1D481A680092009A6A
:101E1000D2041BD5009AD24342F480520192019A17
:101E200002601A680092F2E7164A11601A681249B5
:101E30000292029AD0011BD4029AD24322F08072FD
:101E40000392039A0A601A680292F2E70E4A11603E
:101E50001A680B490292029AD20409D4029AD24318
:101E600022F480520392039A0A601A680292F2E7FF
:101E700004B07047543105400431054050310540ED
:101E800000310540043404400833044038B572B6CC
:101E90001A4B1B4A1A601B4A5A601B4A4FF0FF3309
:101EA000136053609360D360136153619361D36196
:101EB00062B6164C164DAC4201D3164D07E094E8BD
:101EC00003000C3454F8042CFEF760F9F3E7AC423D
:101ED00006D254F8080B54F8041CFEF762F9F6E732
:101EE000DFF83C00016841F4700101600A4B0B4AC5
:101EF0001A6007F041FF00F0A3FAFEE70031054049
:101F00000010DF10FFF7DF0180E200E01401001095
:101F1000500100107801001008ED00E000000010F2
:101F200088ED00E0014B00201870704740900110D0
:101F3000034A01231370034A00201370704700BF47
:101F4000409001101490011007B5002101910091FB
:101F50000123034A034805F0CAF803B05DF804FB07
:101F6000143001106030011008B5037833B1082B2C
:101F700018D8013B0D4A52F823309BB10C4B00227C
:101F80001A60027822B90B490B4805F095F802E077
:101F9000084B013A1A70094A01231370084A13705A
:101FA000002008BD4FF0FF3008BD00BF2090011099
:101FB000109001101D900110603001104090011030
:101FC0001490011010B50C46FFF7CEFF0028A1BFFA
:101FD000024B22681A60002010BD00BF1090011053
:101FE00038B5074D002455F8240038B1013490E885
:101FF0000C002146034805F04FFAF4E738BD00BF56
:10200000209001107030011030B50E4B87B004469F
:1020100018689B880490ADF8143001222C2300210D
:10202000094804AD05F038FA44B10021029101914C
:10203000009506238222204603F0AEFA002007B066
:1020400030BD00BF4C2F01107C300110044B1878BC
:1020500028B9044B1B78002B14BF022000207047C6
:10206000149001101C90011038B504460C20FFF7A5
:10207000ADFE0546FEF718FE0E4B0F491D602046CB
:102080000E4C03F037F900220D49206803F0D7FE0B
:102090000C4B0D4918800022206803F0D0FE00226E
:1020A0000A49206803F0CBFE094B1880FFF74CFF6C
:1020B000002038BD18900110542F0110CC90011051
:1020C0009C30011042800110A0300110A830011096
:1020D00040800110064B09B1D86107E053F8212078
:1020E0000AB10131FAE7024B43F8210000207047A2
:1020F0002090011000B5094B89B0B3F900200021F0
:1021000007AB8DE80B00064804910391012300689A
:1021100003F01DFE079809B05DF804FB4280011032
:10212000CC9001107FB5084B0848B3F9002005A9F1
:1021300000230091029301931946006803F007FE03
:10214000059807B05DF804FB40800110CC900110A9
:1021500007B50A480023D9B2013350F82120002ADC
:10216000F9D1074B1868FEF7E5FE02AB03F8010D45
:102170001846FFF7F9FE03B05DF804FB209001104C
:102180001890011008B5FFF779FC00F059FC02F037
:102190003DFF05F077FC00F091FABDE80840FFF73D
:1021A000D3BEFFFF08B505F01BF9074B1868FEF713
:1021B000E3FD064B187004F0FBFF18B1BDE80840C2
:1021C000FFF7E0BF08BD00BF189001101C90011080
:1021D0002DE9F341264D274F274EDFF8A880FFF762
:1021E000B7FF07232B700024386802F07FFFFFF74A
:1021F000D9FF042C04D8DFE804F00511252B3300A7
:102200000324F1E702A8002340F8043D04F088F815
:102210002A781A4B53F822309B680EE0184B1B7833
:102220001BB1FFF77FFF0224DEE73378002BE7D0F6
:102230002A78124B53F82230DB6898470028DFDBFE
:102240000124D1E70E4B1B78002B08BF0024CBE7FD
:102250000023337088F800300424FFF763FFC3E7DE
:102260003378002BC0D0FFF763FE0024BCE700BF2B
:102270001D900110C8900110409001102090011095
:102280001C900110149001102DE9F041B0F1A05FF5
:1022900086B004460E4609D3174AD36803F1A0530B
:1022A00098429EBF136803F16C43E4181422002186
:1022B00001A808F0EBF800254FF48057A846B54276
:1022C00012D22C4424F47F6424F00F04202301A9AB
:1022D000094801940297CDF80C80059301F045FD63
:1022E00020B905F58055EAE7002001E04FF0FF3006
:1022F00006B0BDE8F08100BFD491011070B5B0F117
:10230000A05F86B004460D46164609D30F4AD3682F
:1023100003F1A05398429EBF136803F16C43E41885
:102320001422002101A808F0B1F80023039301AAA8
:1023300010232946054801940296059301F0EAFB13
:10234000003018BF0120404206B070BDD49101108A
:10235000426838B5536803F0F803C02B044623D015
:1023600004D8A82B07D0B82B05D021E0C82B1BD050
:10237000F82B19D01CE0E56A35B9236B216A606A35
:102380009847E062B8B1A562A36A626A591CA1626B
:10239000D25CE36A013BE36263689A60636804228B
:1023A0001A6008229A6138BD04231360082300E0F4
:1023B0002C23936138BD63689860EFE7014B186880
:1023C000FFF7C6BF4490011013B58DF8051002A9A0
:1023D000002401F8044D40688DF8074000F003F830
:1023E000204602B010BD8B784A7800B503F1FF3E5D
:1023F000DEF1000343EB0E0343EA42030A78DBB24B
:10240000032A1AD8DFE802F002080E14C360CB7862
:1024100003F0FE03036310E00362CB7803F0FE03D6
:1024200043630AE04362CB7803F0FE03836304E076
:102430008362CB7803F0FE03C3635DF804FBFFFF08
:1024400008B504F0DBFF0B4B1868FFF70DFE002109
:102450000948FFF73FFE00F031F900210748FFF778
:1024600039FE01210648FFF735FEFFF7B1FE0020D7
:1024700008BD00BFC89001104880011058800110AD
:102480006880011013B502AC012304F8013D204619
:1024900002F0D8FC0B4B1B680BB1FFF7BFFA0A4BDD
:1024A000186800F082FA0020FFF724FE00F01CFB01
:1024B000036801229B68214698470028F6D102B0A4
:1024C00010BD00BF909001100C9001102DE9F34752
:1024D00000F00AFB284EDFF8A49004460A2596F87F
:1024E0000080B8F1000F03D0B8F1010F15D03AE029
:1024F000236801229B680DF10201204698470028BD
:1025000037DD9DF80230FF2B04D199F800200AB97D
:102510000122327089F8003027E023682046DB680A
:102520009847032821DD236802229B6801A92046E1
:102530009847236802AF9B6802220DF106014FF015
:10254000000A2046984707F805AD01A9384605F06E
:10255000DDF90DF1060138468DF8038005F0D6F956
:1025600086F800A001E000233370013D15F0FF055F
:10257000B5D102B0BDE8F087489001104480011049
:1025800013B5134C2068FEF79FF9FFF79FFF2068F3
:10259000104C01AA6946FEF778F80F489DE806003E
:1025A00001230068FFF718FB00F09EFA03681B691F
:1025B0009847FFF7D1FB23681B689A88DB889A420B
:1025C00002D1FFF783FFF6E7002002B010BD00BF85
:1025D000089001100C900110C89001104368B3F1ED
:1025E000004F37B504460D461BD0CA1AC1680369AF
:1025F000694303FB021302684FF47A7193FBF1F312
:1026000013448B4201DD016003E0002BB8BF0023BF
:102610000360204602A950F8083B21F8023D05F06E
:1026200075F9656003B030BD37B5194D2868FEF700
:102630004BF900212868FEF70DF8C0B1C388048962
:102640004288E41A022194FBF1F41C448388114867
:102650009B1A93FBF1F11144A4B289B2C1F1A0011C
:10266000643CFFF7BBFF21460B48FFF7B7FF01AA09
:1026700069462868FEF709F8084801239DE8060026
:102680000068FFF7A9FAFFF767FB002003B030BD31
:10269000089001104C90011060900110C89001103A
:1026A00007B502A94FF4FA7340F8083B21F8023D40
:1026B00005F02CF903B05DF804FBFFFF2DE9FF41A5
:1026C000DFF8C080264F274A274E284D00244FF4BC
:1026D000FA738DE8180021460423404604F007FDF4
:1026E0004FF448730093214601940423204A38464E
:1026F00004F0FDFC4FF42F73009321460194042352
:102700001C4A304604F0F3FC4FF4617300932146F9
:1027100004230194184A284604F0E9FC224602A941
:10272000404604F0C9FC224603A9384604F0C4FC24
:10273000124B029ADA60039A1A6102A922463046C5
:1027400004F0BAFC224603A9284604F0B5FC0C4B61
:10275000029ADA60039A1A6104B0BDE8F08100BF02
:10276000B233011035330110F83301103D3401103C
:102770007A330110BD330110043401104C90011064
:10278000609001106F33011007B502A8012300F813
:10279000013D02F057FBFFF791FF0B48FFF780FF69
:1027A0000A48FFF77DFF0A4B1B680BB1FFF736F9AC
:1027B000084B186800F0F9F80020FFF79BFC002098
:1027C00003B05DF804FB00BF4C9001106090011055
:1027D000909001100C9001100C4B002119724FF4D5
:1027E00048714FF4FA7219614FF000411A60DA60D3
:1027F0005960074B1A6001221A724FF42F72DA6087
:102800004FF461721A615960704700BF4C9001101B
:1028100060900110024B01221A700020704700BF27
:102820007890011030B505468BB0012422460B4943
:1028300002A807F08FFE002301AA694602A804F04F
:102840003BFC013428462022019907F085FD082C25
:1028500005F12005EAD10BB030BD00BFF52801100D
:102860002DE9F047284C2378C6B082460EAE13B14E
:102870003046FFF7D7FF2378244F05960025AB425B
:102880004FF47A430B934FF0B10314BF38222A461A
:102890000A93022308930693049294231C4A0393F9
:1028A00041238DE80C004FF0C8094FF4A0780C9537
:1028B000CDF82490CDF81C80CDF808A064234FF407
:1028C00090321449386802F0C0FFC0F590310646D6
:1028D00000F180502B4621228DE8200300F50020D6
:1028E00002F0CCFA06F57A420A49386802F075FC23
:1028F0002570094B20B91A6812B1034A01211170E1
:10290000186046B0BDE8F08778900110C8900110BB
:10291000434D563100000810749001107FB5134BE1
:102920001B68E3B9ADF81030ADF812304FF4A07366
:10293000ADF81430C823ADF816300D4B1B68019369
:1029400021220DF116038DF80F2000930DF11202D4
:1029500005AB04A90DF10F0002F04CFB02E00120D1
:10296000FFF77EFF002007B05DF804FB1090011018
:10297000C89001100368D8889A88824210B510D098
:102980001C88621C023492B253F824401A800C60F6
:1029900040F6FE3101308A42D88004D100221A80EC
:1029A00001E0002010BD012010BD01680A888B885D
:1029B000C888CB8013441B1A9BB240F6FD32934269
:1029C00088BFA3F6FE330B807047FFFF042838B59D
:1029D000054625D8144C206810B103685B689847F9
:1029E000124B1D70013D032D11D8DFE805F00204E4
:1029F00006090F4B0CE00F4B0AE00F4D012101E0DF
:102A00000D4D00212868FDF7D6FB2B6801E00B4B2C
:102A10001B682360206803681B689847002038BD46
:102A20004FF0FF3038BD00BF7C9001108090011046
:102A300044900110889001100090011084900110C2
:102A4000F0B5214F214E224A224D85B00024214667
:102A5000019400940123384604F049FB5423009369
:102A6000019401231C4A1021304604F040FB4FF42E
:102A700096430093214604230194184A284604F003
:102A800036FB22460DF10A01384604F015FB9DF88D
:102A90000A00FFF79BFF22460DF10B01304604F0C0
:102AA0000BFB0F4B9DF80B101868FFF78DFC2246AF
:102AB00003A9284604F000FB0A4B0399186800F0AC
:102AC000D7F805B0F0BD00BF1B3501107E350110F1
:102AD00098340110E3350110293501108A350110B1
:102AE0004490011088900110014B1868704700BF96
:102AF0007C900110F8B5274B4FF48042C3F81422A4
:102B00000022C3F81422A3F5703304229E681A62CF
:102B100004461D46EB689B0715D5A76A47B9E169CE
:102B2000E36A206A490098474008A06258B167628A
:102B3000636A226A591C32F81320A36A6162013B5E
:102B4000A362AA60E6E706F47F43B3F5B44F01D170
:102B5000012318E0B3F5B64F14D16269A369606828
:102B6000D31AC31A002BB1B2F2DD2569A6686B1C1B
:102B700001329842236126F815106261E8D10023E2
:102B80002361E5E7002384F83030636B013363632E
:102B9000F8BD00BF00101040014B1868FFF7AABF36
:102BA00084900110084B094A1A60094B9B68B3F1E5
:102BB000E05F01BF074AD2F8003243F40023C2F8B5
:102BC000003203F075BE00BF78800110001BB70013
:102BD00000ED00E000500040F7B5044600206268B8
:102BE00084F83400936803F00E03042B16D11368A5
:102BF000E169A269511AA268521A8242DBB22FDD42
:102C00006269E168551C65618B54A369626901338F
:102C1000A361A3689A4223D1606121E00C2B02D109
:102C2000136801931CE0022B1AD110250127E66AD4
:102C300036B9236B216A606A9847E06260B1A66288
:102C4000A36A626A591CA162D25CE36A84F8347098
:102C5000013BE36263681A60013D15F0FF05E6D1B0
:102C600003B0F0BD014B1868FFF7B6BF88900110A4
:102C700008B5034A406803F063FE002008BD00BFAA
:102C800000CB280C10B540EA01040346A40703D08A
:102C90000AE010C9121F10C3042AFAD804E011F880
:102CA000014B03F8014B521E002AF8D110BD034618
:102CB000C9B202E003F8011B521E002AFAD1704784
:102CC00040F203107047F74948608004800C06D03A
:102CD000012808D0022808D0032808D04869CA690A
:102CE0009207FCD47047087DF9E7888AF7E7888A5D
:102CF0000A7D40EA0240F2E710B54FF4001404EBFD
:102D0000415141EA006040EA0240184310BD806A28
:102D1000400302D54FF4C01070470020704730B513
:102D20000D4613460446002211462846FFF7E4FFED
:102D300001462046FFF7EBFFBDE830400843C2E7FD
:102D4000D84B00B59A60FFF7E2FF08435DF804EB4B
:102D5000B9E7F0B5D34C16460F460546A3600023ED
:102D60001A4631463846FFF7C7FF01462846FFF7A7
:102D7000CEFF01436160E0698007FCD4F0BD002212
:102D80000621CCE7F0B51C4615460E460746FFF770
:102D9000F6FF23462A4631463846BDE8F040D8E7DC
:102DA000F0B51C4616460D460746FFF7E8FFBD4B3B
:102DB0009E603846FFF7ABFF284340F40040586060
:102DC000A804800C07D001280BD0A1B202280AD099
:102DD000032804D05C61D8698007FCD4F0BD9982D7
:102DE000240C1C75F7E79982F5E7AE49CB6913F01F
:102DF000060F19D01022CA61CA6912F0160FFBD152
:102E00005A0711D5C26902F46002B2F5400F0BD324
:102E1000FF220A73C0696FF30F0000F101004860E0
:102E2000087DC8698007FCD470472DE9F04105464C
:102E300000248C46EA7C012101FA02F1994F2046D8
:102E4000CEB2F9698907FCD444F62068641C444575
:102E500007D2012205212846FFF761FFC0B23042A8
:102E6000F4D03042904E28750CD0BCF1000F0ED03B
:102E7000BCF1010F0DD0BCF1020F06D0BCF1030F65
:102E80000BD108E03046BDE8F081884C05E0884C65
:102E900003E0884C01E04FF0FF342846FFF737FF8E
:102EA00085490843E97C08437860F869800702D5C2
:102EB000641EFAD11EE0ECB1387D2875BCF1000F1C
:102EC0001ED0E86AE0B1C1B2052917D00122284618
:102ED000FFF725FFC0B26875E96A10EA112F0FD01D
:102EE000C1F3074119B100222846FFF718FF6E48C9
:102EF000801CC8E72846FFF778FFC3E7287DEBE78B
:102F00000020C0E730B5154604460B4600221146A6
:102F10000120FFF7F1FE01462B4600222046FFF775
:102F20003FFF208D800401D5002030BD2046BDE844
:102F30003040002179E7F0B50546C469806AA626CD
:102F400081050BD504F42001B1F5000F06D144F43E
:102F50000014EC61296A41F400112962810618D538
:102F6000400501D5022700E001273F1D01228521F0
:102F70002846FFF7D4FE00F00703E869C7F1100107
:102F800000F4E020C8400343012281212846FFF7D6
:102F9000F9FE95F82800C00707D000230322A321DB
:102FA0002846FFF7D6FE761EFDD1C4F342513D48B8
:102FB000062904D3A521C16024F4400401E0FF21C7
:102FC000C1608461F0BD10B5044690F82800000689
:102FD00011D501222B212046FFF7A1FE6075A16AC1
:102FE000000621F4703102D54FF4803001E04FF437
:102FF00080400143A16210BD30B50023816383840A
:103000000723C38410E0838CCC88234483840B790A
:10301000C48CCD88DB0701D0022300E0012305FB2F
:1030200003430831C384083A082AECD2C3F3CC0125
:10303000C18430BD826B22B109B1828C0A80C08C00
:10304000704711B18268120C0A808068C00C70470A
:1030500010B5044600F13C030021FFF7EBFF01002F
:103060001FD0A06A40F48070A0622046FFF74FFE98
:1030700040EA0102114802430A48426002E0027D30
:1030800003F8012B0A00A1F1010189B2F7D1002157
:103090008034A34202D203F8011BFAE7C169890711
:1030A000FCD410BD00300040030002007082030019
:1030B000E09C41000083400A00402005000020728F
:1030C000491C01228A404FF0006182608A4200D987
:1030D0000A46C26070472DE9F0410D460446C069BA
:1030E000FC491F461646884272D02046A562FFF76B
:1030F0006AFFA068B0F1807F1CD9A06A40F400701C
:10310000A062207C012806D020280BD0C2280CD039
:103110004FF00210B7E68023012217212046FFF767
:1031200018FE07E02046FFF72AFE0022B7212046BE
:10313000FFF7F5FD680504D5E748016841F08051C7
:103140000160DFF89883680724D5012235212046E5
:10315000FFF7E5FDC0B26075810755D4C00735D1D2
:10316000012205212046FFF7DAFD617D41F00201D1
:1031700040EA012082B202212046FFF7C3FE002868
:10318000C8D1012235212046FFF7C9FD60754FEAFD
:10319000807019E0E8041CD5012205212046FFF7C4
:1031A000BEFDC0B2207541062ED440F04002012180
:1031B0002046FFF7A7FE0028ACD1012205212046BA
:1031C000FFF7ADFD2075400600281DDB40465AE69E
:1031D00052E0280718D501223F212046FFF79FFD26
:1031E000C0B2607501060FD440F0800301223E2179
:1031F0002046FFF7C7FD01223F212046FFF78FFD44
:1032000060754FEA0060DFE7A80705D50022382186
:103210002046FFF784FD1BE0E80619D5680502D5B6
:103220004FF0400C01E04FF0800C01226521204658
:10323000FFF775FDC0B2607510EA0C0F08D040F0C2
:10324000C80323EA0C03012261212046FFF79AFDFF
:10325000C6F3C1400328A06A10D020F48020A062E9
:10326000280507D5C6F302435B1E0122C021204674
:10327000FFF76FFDC4E90767002004E640F48020F3
:10328000EDE72DE9F041944D04469C46A8691646A9
:103290000F4610F4400F50D00146C0F3C140E16129
:1032A00003284DD00020A0622046FFF79EFD00229B
:1032B000FF212046FFF733FD002201231146652040
:1032C000FFF71AFD40F4C010FFF7FDFC55280CD0A5
:1032D00040280AD3C02808D2810606D440F0C00393
:1032E000012261212046FFF74DFD8022002120466A
:1032F000FFF7DDFC06F0C100C12824D04FF4702197
:1033000001EA074141EAC0504FF6FF7108442860C6
:1033100003229F212046FFF702FD4FF0004120616C
:10332000C4E9001530B16FF07F41884202D06C498A
:1033300088420BD16948401DA5E540F44001ACE747
:103340004FF48020AFE76548401E9CE54FF4804075
:10335000A0621C2060839C2020835E4FB00701D5B3
:10336000384600E05F4844F81C0F5F48606020204A
:1033700020760C202075D820A0761020A07514F897
:103380000C0C1C3C7F2824D00CDC1F281BD004DC38
:10339000012814D01C282ED113E0202815D037285E
:1033A00029D114E0C2281AD004DC8C2813D0BF28FD
:1033B00021D112E0C82814D0EF281CD113E04B4DC6
:1033C00012E04B4D10E04B4D0EE04B4D0CE04B4DE1
:1033D0000AE04B4D08E04B4D06E04B4D04E04B4DF1
:1033E00002E04B4D00E04B4D2DB162463146204688
:1033F000A847064601E0394E361D06B30025E761B1
:10340000284600F0D0FD0321012300220846FFF7E3
:1034100073FC014600222046FFF792FC01460DB1E5
:10342000FF2000E00020814202D16D1C022DE7DB6D
:10343000022D0AD1A06A40F40070A06205E0208D40
:10344000000402D52046FFF703FE2046FFF773FD78
:10345000304618E52DE9FF4F89B0804600200090E6
:103460000A989346C6684046FFF7BFFC4046FFF700
:10347000AAFDD8F82870780474D5B8F8180007F0B9
:10348000040100F47F40084300D00120814601225E
:1034900005214046FFF743FC88F814005FEA090065
:1034A00004D0012235214046FFF739FC88F8150089
:1034B000B8F81440701C30D076B3B8F8180024EA7D
:1034C00000023040024309F101014046FFF71AFDB6
:1034D000009066E0FF3F80030030004005000200DE
:1034E000CCCCCC00FF3F810B00808002D348001081
:1034F00061430010714100104B470010D140001093
:1035000085420010194400107D49001085450010C7
:10351000D5440010534A00100AE09BF8000008B39D
:103520000C980288B8F81A00024084432243CAE784
:10353000B8F81A00204236D001208BF800000C9811
:10354000002509F1010A0480B8F81A00514624EA5E
:1035500000024046FFF7D6FC009020B16D1C032D01
:10356000F2DB82E11FE0A620401EFDD101220521F1
:103570004046FFF7D4FB88F814005FEA090004D046
:10358000012235214046FFF7CAFB88F81500B8F83C
:103590001400B8F81A10084202D0FE48009064E106
:1035A00000980028DDD117F4603FDAD04FF0000A10
:1035B0000120D8F83850544607900EB1FF2000E0A3
:1035C000002006904FF4803005900A9808F13C0CDA
:1035D0004FF00009D0E900100844CDF808C0089069
:1035E000D8F81C0004A9C0F34050C01C039040460A
:1035F000FFF720FD01900DB9BDF810A0380404D5E7
:10360000F80502D44046FFF723FD701C01D0AEB18F
:1036100000E19BF8000050B13804F9D5DDE9012044
:103620000C99FFF72FFB0020ADF81000F2E04046A8
:10363000FFF781FC00200DB0BDE8F08F00208BF873
:1036400000003804E4D5DDE901210C98FFF71AFBEE
:10365000E0E0BAF1000F3FD195F90500B5F806A0FA
:10366000D5F80090002800DA404201218140059100
:103670002879C00721D0B00140EA061040EA860050
:103680003043C0B2069002200790402C0CD0102C82
:103690000AD0042C08D0012C06D0202C0AD0082CEB
:1036A00008D0022C06D017E04046FFF744FC4FF04C
:1036B0000210C0E744EA54040EE00EB1FF2000E01F
:1036C0000020069001200790302C03D00C2C01D054
:1036D000032C01D104EA440434B925B12879C00788
:1036E00001D0C02400E080240A980599026809EB03
:1036F0000100824274D208984946484570D917F4AF
:10370000403F5FD0701C0AD0002E1ADDF8030BD5A5
:103710000B4636214046039AFFF734FB4BE09CF8FA
:1037200000002042F2D146E001230022E520039967
:10373000FFF7E2FA014601234A464046FFF730FB15
:1037400039E038D1F80301D53C2000E0E82001231E
:1037500000220399FFF7D0FA01464A464046FFF798
:10376000EFFAC0B2B90302D5C14389070AD0C00736
:1037700024D0F8030BD54B4639214046039AFFF776
:1037800001FB10E04046FFF7D6FB824853E70123D8
:103790000022E5200399FFF7AFFA014600234A46CD
:1037A0004046FFF7FDFA01208BF800009CF800006E
:1037B00020438CF800000098F0BB11E09CF800005A
:1037C000A043F6E79CF80010069A21EA0400224084
:1037D0001043814204D08CF8000001218BF80010C6
:1037E0000798C44001D10CF1010C3DB195F90500D9
:1037F000002803DA0598C0F1000000E00598814434
:10380000AAF101001FFA80FABAF1000F02D10DB13E
:1038100005F10805BDF81000A0F10101ADF8101088
:1038200000287FF416AF9BF8000028B138041CD59F
:103830004046FFF7A4FA00E017E040460299FFF780
:1038400066FA019A1043544A1043544A506002E009
:1038500011F8010B10750198A0F101039BB20193BF
:103860000028F5D1D0698007FCD44046FFF763FB00
:103870000098E0E670B50A688368CBB104689442AA
:1038800006D8C5684E6825441644B54200D3121BBD
:10389000934210D94C6814449C420CD80B7C13F012
:1038A000300F02D0C068844205D800200A6070BD85
:1038B0003848801C70BD3748401E70BD70B5154635
:1038C0000C460646FFF791FA3046FFF758FA33499F
:1038D0008D603046FFF71BFA326A02F4600242EA5A
:1038E000046210434860C72C07D0602C05D001212A
:1038F0003046BDE87040FFF798BA0321F8E770B58D
:1039000016460C460546FFF73AFA24498C60286AA9
:103910003043486070BD2DE9F047984617460E4683
:1039200082461C68DFF87490556865E03868C1B25B
:10393000C1F58074396911B1A54200D22C462146E7
:1039400002E0761C6D1E641EB20709D03278FF2A91
:1039500011D1BDB1002CF4D114E0361D2D1F241F50
:103960003268521C07D1042D05D3042CF5D203E094
:10397000761C6D1E641E2DB124B1042C02D2327847
:10398000FF2AF5D0091B0144396074B12246504624
:1039900006E00000050002000080204200300040E8
:1039A000FFF7ADFF3868204438603DB3002CBDD030
:1039B0004846B1070BD0C5B14CB116F8011B0175D3
:1039C0006D1E641EF5E702CE41612D1F241F042DDC
:1039D00007D3042CF7D205E016F8011B01756D1E04
:1039E000641E15B1002CF7D100E02CB9022150461D
:1039F000FFF71BFA002804D1002DD6D10020C8F80B
:103A00000040BDE8F0870068084404E00168491CF4
:103A100004D1001D121F002AF8D10020704713683E
:103A20000068184410604840800701D000207047AB
:103A3000012070473FB51D460C4602AAFFF7EFFF75
:103A400035B348B922E0029814F8011B027891427C
:103A50001FD1401C6D1E0290A0070BD0002DF2D18B
:103A600016E0029821680268914212D1001D241DBF
:103A70002D1F0290042DF4D208E0029814F8011BC7
:103A80000278914205D1401C6D1E0290002DF4D1A8
:103A9000002004B030BDF8B50D46116800911E46F7
:103AA0005468F7436A462946FFF7B9FF7CB3E8B18B
:103AB000FAB2A80718D054B3009810F8013B82EA74
:103AC000030115F8013B0090734019421BD1641E9D
:103AD000EFE700982968026871407A40114212D1DC
:103AE000001D2D1D241F0090042CF2D2FAB274B1D7
:103AF000009810F8013B82EA030115F8013B0090A1
:103B00007340194201D00120F8BD641EEFE7FFE7C2
:103B10000020F8BD2DE9F74F17469CB08B461422C4
:103B20003946684606F026F900258DF8605069464A
:103B30007C681C98FFF79EFE060037D1009819900C
:103B40002044179028460390388A800507D405AB97
:103B500018AA69461C98FFF77DFC060026D1B4E040
:103B60001C984FF0010990F8301009FA01F0009903
:103B7000421E21EA020A00EB0A08A8EB0105AC424A
:103B800000D225460195387C400706D400236A46BA
:103B900059461C98FFF77FFF00B1012000991A9148
:103BA00000287DD0387C000702D5F0481FB043E5DF
:103BB000B86828B3009A1799A2EB0A09414503D2C5
:103BC000179AA8EB020100E000218846B9F1000F26
:103BD00008D01C994A46096841EA0A01FFF752F8E1
:103BE000CDF800A0B8F1000F0DD01C98BA6801689C
:103BF0001798014302EB09004246FFF743F802E041
:103C00004FF00008C1461C98524690F83410FFF758
:103C100055FE060003D01C98FFF78DF966E0387C4E
:103C2000800610D51C98FFF786F91C980122514692
:103C300090F8300082401C98FFF7E5FE0028B5D1CF
:103C40001C98FFF7D2F8002016900490CDF804904D
:103C500016AB6A46B9681C98FFF75DFE06460195EB
:103C6000B8F1000F03D00020049016B108E0012045
:103C7000FAE716AB6A4659461C98FFF74CFE064613
:103C80000120CDF80480049076B9B96816AB494498
:103C90006A461C98FFF73FFE060005D1169800E023
:103CA0005CE008B14FF002161C98FFF744F9EEB93A
:103CB000387CC00607D52B4659461A9A1C98FFF740
:103CC000B9FE060012D1AB44641B002C7FF448AF50
:103CD000F86858B10390199800907868019005AB86
:103CE00018AA69461C98FFF7B5FB064630465DE703
:103CF00041F0FF00451A6D1CAC4200D225464FF042
:103D0000FF336A46594601951C98FFF7C4FE00B37D
:103D10001C98FFF76AF800201690CDF8109016ABAB
:103D20006A465946DDF800A01C98FFF7F4FD0646E8
:103D30001C98FFF700F9002ED8D1387CC0060BD5AF
:103D40002B46524659461C98FFF774FE0600CDD10B
:103D500002E0009828440090AB44641B002CB7D0CC
:103D600000994145BFF4FCAEC2E72DE9F04F9DB08C
:103D700081460C461422684605F0FCFF00268DF8AB
:103D8000686099F8301001208840D4F804B0199088
:103D9000694617964846FFF76DFD05007ED10396EC
:103DA000208A800507D405AB1AAA69464846FFF762
:103DB00051FB050072D100991B9101EB0B0016908D
:103DC00000296CD1D9F80810594568D899F828000D
:103DD000400664D44846FFF708F800231A46C72176
:103DE0004846FEF7CFFF03214846FFF71EF8054679
:103DF0004846FFF7A0F8A4E04FF0030C09EB0C00D5
:103E00001C9090F8300000287ED001278740009851
:103E1000791E20EA0108A0EB080608EB07001699B6
:103E20001890814201D2401A00E000208246199881
:103E300086427ED219998A457BD2A06898B136B164
:103E4000D9F80010324641EA0801FEF71BFFBAF12B
:103E5000000F08D0D9F80010169852460143A06808
:103E60003044FEF70FFF09EB0C00424690F8341087
:103E70004846FFF723FD05464846FFF75CF8002D4E
:103E80006FD1207C80060DD51C980122414690F808
:103E9000300082404846FFF7B6FD01E062E04CE0AA
:103EA00005005FD1A06880B301200490FEB14846B0
:103EB000FEF79BFFCDE9008617AB6A464846A1682E
:103EC000FFF729FD05464846FFF735F825B917984D
:103ED00010B14FF0021544E0207CC00606D53346F1
:103EE00042464846A168FFF7A5FD0546CDBBBAF19D
:103EF000000F17D04846FEF778FF1698CDE9000A64
:103F0000A06817AB811901E013E00BE06A46484650
:103F1000FFF701FD05464846FFF70DF80DBB179862
:103F20000028D6D118980090BB450BD9ABEB070BF6
:103F300003E0BCF1010C7FF561AFBBF1000F7FF432
:103F40005BAF75B9E06860B11B9800906068019044
:103F5000E068039005AB1AAA69464846FFF77AFA6B
:103F6000054628461DB0BDE8F08F00000B0002009A
:103F70004D4A4C4911604D4A122111604221121DD7
:103F800011604B4948434FF4E111B0FBF1F149484E
:103F90008022C260CAB20260090A41600721C16082
:103FA00047218160704728B1012805D0D3204249BC
:103FB00008607047DB20FAE7C320F8E73E49F320AA
:103FC0000C390860D3200861C860886048601320FD
:103FD0004861704770B50D46334B0021A03B996195
:103FE000364E05E05E615A691402FCD4C2F34D21DD
:103FF00078392929F6D2A02801D9A02002E00A2880
:1040000000D20A204FF4A071B1FBF0F460430C2100
:10401000B0FBF1F12A4A481E42EA0042586C294E90
:104020000640964213D0DE6EC6F304660C2E01D114
:10403000254EDE66C60706D140F001005864002018
:10404000401CFF28FCD95A64186CC007FCD001EB57
:1040500041004FF49672B2EB800F01D2032006E0CC
:104060009622B2EB800F01D2022000E001208200F4
:10407000121F42F010629A64A200121F42F01062F6
:104080009A65084ADA66114A1A6701EB41018B000A
:10409000B3FBF0F00646FFF76BFF05B12E60B3FBF4
:1040A000F4F070BD0008000CA00005403466084024
:1040B00040420F00002008409861084078008006C8
:1040C00080000006C333FF0F000800010008001045
:1040D0002DE9F041467C847C0F460546302E04D005
:1040E000402E07D01C48BDE8F081A4F1100007283D
:1040F00011D209E0A4F1150002280CD244F21C40B0
:10410000688344F2FC502883611E2846FEF7D8FFDE
:10411000402E05D102E01048401EE4E7F80508D51E
:104120000E484FF48841162C01D30D4B05E02B6A45
:1041300003E00C480C4B44F20401162C01D3062278
:1041400000E0042240EA4252084802432846BDE803
:10415000F041FEF7C0BF000008000200000001BBF4
:10416000008088A2000003EB00808832FF3F10002F
:104170002DE9F0410546407C88464FF480460027F3
:10418000A97CA0F14303394CB200052B23D84B097D
:104190003ED1A0F132041646442806D045280AD064
:1041A00046283BD344F4807438E020223049284626
:1041B000FEF722FF32E0012930D12D4920222031A3
:1041C0002846FEF719FF04229F212846FEF7A7FD87
:1041D000000EE7D122E0652809D0662807D086289E
:1041E00014D0872812D02148401CBDE8F081A0F1EE
:1041F0005604652808D06C20688340F0800028832E
:10420000002085F8320009E00420F5E7490901D0D3
:104210002046EAE7723840F440741646522085F88A
:1042200035000F2085F8310042F20500E86204F005
:104230001F012846FEF744FF14F4407F13D0B4F565
:10424000407F02D35FEAC85004D546F48061094A32
:10425000094B03E0094A0A4B46F008012846BDE82D
:10426000F041FEF738BF3846AE62BEE707000200F5
:10427000F4350110FF3F893B008088A2FF3F896B26
:104280000080883270B50546407CAC7C0E469D2887
:1042900001D02D4870BDA4F11300012818D90C38A5
:1042A000032803D8113C44F4807411E02F2C07D06C
:1042B000A4F14400022806D8313C44F4407407E0DD
:1042C0004FF4877404E0A4F17C00022820D86C3CF1
:1042D00004F01F01102902D80F2085F83200B4F530
:1042E000457F03D33C206883BC2028832846FEF703
:1042F000E7FE14F44070CDD04FF44072944201D3E5
:10430000F0050DD54FF48841944204D90F4803E0DD
:104310000D48401E70BD0E480E4B18432B6A03E03B
:104320000D480E4B4FF4A041944201D9062200E003
:10433000042240EA425243F6FF7002432846BDE899
:104340007040FEF7C8BE000008000200000010BB6D
:104350000000083BFF3F0100FF3F13EB0080883265
:104360002DE9F041457C867C0F460446202D08D07F
:1043700005F0BE00302804D0382D02D02348BDE817
:10438000F081A6F11000092802D32048401EF6E76C
:10439000112E03D80F2084F832000BE0202D09D114
:1043A000172E07D1102004F8300FD82020710020DC
:1043B000A070303C711E2046FEF782FE162E06D0FD
:1043C000302D02D0702D02D005E0162E03D33C20F4
:1043D0006083BC20208305F0BF00302801D000207E
:1043E000CDE7608B236A40F0C0002083F80503D539
:1043F0004FF48841064A04E0064A44F2020143F4BD
:10440000C0132046BDE8F041FEF765BE080002007B
:10441000FF3F91BBFF3FDBEB2DE9F041447C857C06
:104420000F460646202C0AD0212C08D0302C06D06E
:10443000402C04D0412C02D02048BDE8F081A5F1E9
:104440001300052802D31D48401EF6E7302C01D08A
:10445000412C05D1BC203083412C01D13C207083FC
:10446000691E3046FEF72CFE600601D5F8050AD518
:104470004FF48841600601D5114A00E0114A124804
:10448000336A024307E0162D09D04FF480500F4ADB
:104490000F4B40F4804114F09F0F02D005E0042040
:1044A000F5E7162D01D141F40051600601D542F423
:1044B00080023046BDE8F041FEF70DBE0800020064
:1044C000000010BB0000083BFF3F8100FF3F93EB63
:1044D000008088322DE9F0410446066A407CA57CC4
:1044E0000F46402802D02248BDE8F081A5F1100017
:1044F00007283AD8522084F835000F2084F831007C
:10450000102D0BD0142D05D3D22084F837001120A4
:1045100084F83300162D05D21C2005E0002084F815
:104520003200F9E744F21C006083162D02D24FF4EA
:10453000FE7001E044F2FC502083691E2046FEF725
:10454000BFFDF80503D544F201410A4A05E00A4AD5
:1045500044F20501162D00D3084E094833460243A4
:104560002046BDE8F041FEF7B6BD0148401EBBE75E
:1045700008000200000011BB000013EB008088322D
:10458000FF3FC0002DE9F05F457C847C8B460646EA
:104590004FF0000A4FF48049202D08D0242D06D07A
:1045A000252D04D05E2D02D05648BDE8F09F04F0C2
:1045B0001F08A8F1100009286FD8A8F101013046A2
:1045C000FEF77EFD504904F00F00102C085C70834C
:1045D00040F08000308302D1002086F832000122B2
:1045E00005213046FEF79BFBC0B2307510F0400746
:1045F00019D140F0400080F0040201213046FEF75E
:1046000081FC5FEA000AD0D1012205213046FEF785
:1046100086FB80F00400C2B2327502F0400701212F
:104620003046FEF76FFC202D02D0252D04D00FE080
:10463000162C12D337B910E0A4F13300062801D9A3
:10464000532C0ED3522086F835000F2086F8310007
:10465000202D02D0252D04D01AE0172C18D317B91D
:104660002EE0342C14D3A8F1140006280ED2DFE873
:1046700000F0030715191D2123491022783902E0A3
:104680002149102268393046FEF7B6FC4FF0800908
:10469000A7B11BF4807F15D127E02FE01A49102223
:1046A0005839F0E7184918224839ECE7164918221A
:1046B0003039E8E7144918221839E4E7202D1BD1D6
:1046C000152C19D337B1202D01D1182C02D9BB21BB
:1046D000022001E03B210120090641EAC0420B48CB
:1046E00049F480610243336A02E0094B094A4946B2
:1046F0003046FEF7F0FC8246504656E70148401E21
:1047000053E7000008000200AC360110FF3F8100B3
:1047100000809038FF3FD3EB0CB5024652A0D0E9A1
:104720000030CDE90030C80505D54B2A01D801205D
:104730000CBD02200CBD002069460B5C934202D2E6
:10474000401C0528F9D3401C0CBD2DE9F047044658
:10475000457C867C8A461046FFF7DEFFC7B24FF4E1
:1047600080484FF00C09202D0ED0BA2D0CD0BB2D57
:104770000AD0DB200821802D1AD0402D21D0712DA8
:1047800025D03B48BDE8F087D82084F83400112EAE
:1047900001D80F2006E0202D03D1182E01D31220BE
:1047A00000E0102084F83000002084F832000EE091
:1047B0003034207121702020607184F80190303CE9
:1047C00005E084F8340084F830104FF04008A6F17A
:1047D00010000A2802D32648401ED3E7711E204647
:1047E000FEF76EFC132E02D2A4F81A9006E0BA2D42
:1047F00004D3172E04D35C20608301E0712D11D007
:10480000BA2D0FD0BB2D0DD00020618B40F0800061
:1048100008432083712D23D307D14FF41131154A5A
:10482000154B18E04FF02000EFE71448E0625FEA14
:10483000CA5006D5124844F2304140EA0742114BB3
:1048400005E01148114B44F2300140EA0742182EAE
:1048500001D341F400312046BDE8F047FEF73BBCF0
:104860000020C4F828808DE7273B4E5F6C000000D5
:1048700008000200FF3F893B008088A27030500092
:10488000FF3FD8BB008098D2FF3FD8EB0080981242
:1048900010B5044605229F21FEF741FA000E0328B9
:1048A00001D03049E1623049097D19B1012905D0B3
:1048B0002E4810BD122084F8300003E0032801D1F7
:1048C0003C206083A17C2046491EFEF7F9FB0020B6
:1048D00010BD70B504460D46407CA17CD82284F8FA
:1048E0003420102284F83020002284F832201F4A1D
:1048F000521C022803D0202813D0501C70BDA1F1F7
:104900001200022803D82046FEF7DAFB13E0A1F1DB
:104910001500012802D81348E062F4E7192904D0F1
:1049200001E0182901D0104670BD2046FFF7B0FF06
:1049300010F0FF00F8D1E06A0028F5D0608B40F459
:1049400036502083E80504D54FF48841084A236A8D
:1049500003E0084A084B44F204012046BDE87040D9
:10496000FEF7B9BB056030000030004006000200D1
:10497000FF3FD1BBFF3FD3EB0080883270B50446C8
:10498000417C807C254A262903D025292AD0501C29
:1049900070BD00F0DF01032926D80721E174002152
:1049A00000F0070584F8321005F113012046FEF7E8
:1049B00087FB012D04D0022D05D0032D09D10DE078
:1049C0002822174902E01649282228312046FEF7FE
:1049D00013FB144B144A48F2020119E01049282233
:1049E0005031F3E74B2801D0104670BD1621204608
:1049F000FEF766FB3C206083BC202083522084F8B5
:104A000035000F20094B0A4A84F831004FF4C841A1
:104A10002046BDE87040FEF75EBB000007000200C4
:104A2000B836011000809802FF3F990B008088A2E1
:104A3000FF3F91BB08B5014638A06A460068009068
:104A40000020135C8B4202D2401C0328F9D3401C87
:104A500008BD2DE9F0419046477C0446867C304AEB
:104A60004FF480454FF48840302F03D017F08F0F5C
:104A700009D029E0A6F1100104290AD2218B41F0C6
:104A80002001218310E0702F1ED0A6F11203082B05
:104A900002D31046BDE8F08144F21C02628344F266
:104AA000FC122283C90500D50546711E2046FEF77B
:104AB00007FB522084F835000F2084F83100680588
:104AC00005D5184A236A11E01548401CE2E7602F1B
:104AD0000FD00322022144F204050120120442EA0D
:104AE000C14211490A43114941EAC043402F09D04C
:104AF0000EE044F604054046FFF79CFFC2B20320D7
:104B00000146EBE7142E03D3162E01D845F001051C
:104B100029462046BDE8F041FEF7DDBA1E325000BE
:104B200007000200FF3FD1BBFF3FC0EB0080803297
:104B3000014B1878704700BF81800110014B187835
:104B4000704700BF7E800110014B1878704700BF8E
:104B50007F800110014B1878704700BF80800110E2
:104B6000014B1878704700BF8C90011038B5094D83
:104B70000121286803F0FAF802210402286803F0F2
:104B8000F5F8204304020521286803F0EFF82043DC
:104B900038BD00BF9890011038B5094D162128681E
:104BA00003F0E4F810210402286803F0DFF8204342
:104BB00004020021286803F0D9F8204338BD00BF63
:104BC0009890011008B5034B0178186803F0CEF8EF
:104BD00008BD00BF9890011038B50568094CEAB2CD
:104BE0002068052103F0ACF8C5F3072220680221F4
:104BF00003F0A6F82068C5F30742012103F0A0F8EE
:104C0000002038BD9890011038B50568094CEAB20B
:104C10002068002103F094F8C5F3072220681021D2
:104C200003F08EF82068C5F30742162103F088F8D8
:104C3000002038BD9890011038B50B4D027804461D
:104C40002421286803F07CF822782868142A86BF7B
:104C5000143AD2B20022252103F072F8034B2278D5
:104C60001A70002038BD00BF98900110808001109C
:104C70002DE9F743134D064688461022092128687E
:104C800003F05EF80024A146444510DA3719315D7F
:104C90007A78286803F054F8315D286803F066F8E4
:104CA0007B78834218BFCDF804900234ECE70022F1
:104CB0000921286803F044F80348FFF7BDFF03B05B
:104CC000BDE8F08398900110808001102DE9F0413B
:104CD000274C07461321206803F048F803210546B6
:104CE000206803F043F8234A3B781178994206463E
:104CF000904633D093B905F0F7021321206803F0F2
:104D00001FF806F07F020321206803F019F8402203
:104D10000E21206803F014F8032214E0012B14D1B3
:104D200005F0F7021321206803F00AF866F07F020D
:104D3000D2B20321206803F003F848220E21206834
:104D400002F0FEFF3322212105E0022B0CD145F0B9
:104D50000802D2B21321206802F0F2FF3B7888F8F3
:104D600000300020BDE8F0814FF0FF30BDE8F08159
:104D7000989001108C90011038B50A4C0546972187
:104D8000206802F0F3FF2B781BB140F00A02D2B288
:104D900001E000F0F5022068972102F0D1FF002029
:104DA00038BD00BF9890011008B5044B0A7801780F
:104DB000186802F0C5FF002008BD00BF98900110E0
:104DC00070B5104E05783378AB4219D00E4C5DB9F2
:104DD0002A463821206802F0B3FFE122962120689C
:104DE00002F0AEFF35700BE010223821206802F08F
:104DF000A7FFF1229621206802F0A2FF0123337061
:104E0000002070BD7E8001109890011038B50B4CC9
:104E100005782378AB420FD0094B35B9A022132176
:104E2000186802F08DFF257006E01868A52213218E
:104E300002F086FF01232370002038BD7F8001101F
:104E40009890011038B50A4D04782B78A3420AD007
:104E500014B91E21074803E0012C06D106481E2183
:104E6000FFF706FF2C70002038BD4FF0FF3038BD33
:104E700081800110303701104E3701102DE9F043C9
:104E800093B09846BDF86C50BDF87040BDF868907E
:104E900004FB05F307468B424FF0FF301646119096
:104EA0004FD8131109D108EB0503B3F5A06F4DDC02
:104EB00009EB0403B3F5487F15E0012B09D108EB9A
:104EC0000503B3F5207F41DC09EB0403B3F5C87F8C
:104ED00009E0022B38D108EB0503B3F5A07F35DCE0
:104EE00009EB0403C82B31DC12A806F00F0300F80D
:104EF000053DFFF7A7FF002828DB164B0220B3F97A
:104F00000020099011AB00210C93079005900390AD
:104F10000423114801930E910D910B910A94089569
:104F2000CDF81890CDF81080029700960123006804
:104F300000F00DFF119848B9084B1F609D80DC8080
:104F400004E06FF0010001E06FF0020013B0BDE873
:104F5000F08300BF7C800110CC9001109090011074
:104F60002DE9F0478AB01E46129D204F90461A88C0
:104F70002B8806938A460021099103FB02F1022344
:104F80000593049203931A4A9DF8503008910293B6
:104F9000B12141238DE80C008146079164233946F5
:104FA0004FF49032139800F050FC29880291318818
:104FB0000191B8F8001000910446C0F5903100F15D
:104FC0008050BAF8003099F8002000F50020FFF773
:104FD00055FF33882A88804602FB034239461398DE
:104FE00000F0FBF840460AB0BDE8F087000008106A
:104FF000424138311FB501240294079C0194069C5C
:105000000094FFF7ADFF04B010BDFFFF30B50C4DAD
:105010000C4A85B000245A238DE81800214601234C
:10502000284602F064F822460DF10F01284602F0EE
:1050300043F80DF10F00FFF7FFFD05B030BD00BFD5
:10504000E83B01106C37011013B50420FCF7BEFEDD
:105050006021044602F02EFE134BA02120461C6066
:1050600002F084FE28211148FFF702FE02A8002466
:1050700000F8014DFFF7E6FE0D4B0E49186800F0F1
:1050800039F90D4B0D491868224600F0D8FE0C4B3B
:10509000A042188003DBFFF7B9FF204601E04FF084
:1050A000FF3002B010BD00BF989001108C4101107C
:1050B000C8900110C43F0110CC9001108D3D01102B
:1050C0007C800110024B00221A60DA809A807047BF
:1050D0009090011070470020704710B50023934254
:1050E00003DACC5CC4540133F9E710BD90F83B00FF
:1050F0007047836813B14360002383607047F0B545
:10510000002351F8232004689E008F19002A32D012
:10511000092B30DC251D12F8012C0560256815B916
:105120006FF00200F0BD12F0800F12D102F00F02FA
:10513000012A03D18A5912782A701AE0022A03D16F
:105140008A5912882A8014E0042AE9D18A591268FF
:1051500002E0A12A8A5901D12A600AE012682A6075
:1051600004F10802026062680133002AD8D07C682A
:1051700014600133C5E7231D036020680028CFD1E8
:10518000F0BDF8B590F83B3005460E4617460BB912
:105190008A061FD5EC6824B9330606D54FF0FF30D8
:1051A0000EE04FF0FF3000240AE00020F8BD2B682D
:1051B0003A46DB683146284698470028F5D0013446
:1051C00095F83930A342F2DC002805DA002385F88F
:1051D0003B30F8BD6FF00500F8BD10B5044680689F
:1051E000636810B9A360616001E08B420FD1236A4C
:1051F000D21AE26094F83A2062B918212046FFF7EB
:10520000C0FF02462046FFF774FF104610BD6FF046
:10521000040010BD002010BDF8B5858E0E49403544
:105220002F010446384608F0E7FE064688B13A46A4
:10523000002105F02BF9A28E216B1201304605F0FA
:105240008BF8206B08B1FCF7C5FD2663A58600200E
:10525000F8BD6FF00400F8BDF0560110F8B5064631
:105260000F460025B38E2CB29C4209DA2301326B23
:10527000D05840B1394605F097F920B92046F8BD1D
:105280004FF0FF30F8BD0135ECE7F8B504460D46A8
:105290001646E5B129462046FFF7E0FF002810DA60
:1052A000A78E002210B2B84205DA0301216BCB5859
:1052B0000132002BF6D1B84203D12046FFF7ACFFF4
:1052C000E7E7226B0301D118D5504E60F8BD4FF0CF
:1052D000FF30F8BD38B505461C46FFF7D6FF00285D
:1052E000A1BF2A6B02EB0010C4600020B8BF4FF0D2
:1052F000FF3038BD38B5054601F1080454F8081CE4
:1053000039B1234654F8042C2846FFF7E3FF18343C
:10531000F4E7084638BD38B504461546FFF79EFF4A
:10532000236BB5F9002003EB00131A8138BDFFFF92
:10533000437E70B5054613B16FF0040070BD11B91E
:105340004469803401E001F180040949204608F0F5
:1053500053FE06460028EFD06A69696804F0FCFF36
:10536000686808B1FCF736FD6E606C61002070BDA6
:10537000F05601102DE9F04F884685B01F460546CE
:1053800040B190F83A30006A13B100F1040902E02C
:10539000814600E081460123C9EB020A01933B6884
:1053A00093F800B01A1D3A60BBF1000F00F0DF80E7
:1053B0000BF0BF02012A09F1010408EB090608F805
:1053C00009B008D13A68111D1268396009F1020666
:1053D00008F80420B1E0022A13D13A68E60748BF72
:1053E00024F0010402F1040148BF0234396008EBE3
:1053F0000401B2F9002001F801BCA61C28F8042021
:105400009BE0042A02D0BBF1640F11D13A68A007D7
:1054100018BF24F0030402F1040118BF04343960FA
:1054200008EB0401126801F801BC48F8042016E0FA
:10543000142A16D13A68073222F0070202F1080155
:105440003960D2E9000104F0B5FAA1071CBF24F0CD
:105450000304043408EB040202F801BC1060261DAA
:105460006BE0A12A23D13A68111D396013680293B9
:10547000184605F065FA421CA618AAF108018E42EA
:105480000FD915B96FF0040075E031462846039234
:10549000FFF74EFF00286EDBD5F80480D5F814A086
:1054A000039A029908EB040004F056FF45E0120647
:1054B0005FD53968081D386008680BF03001302965
:1054C0000BF00F0201BF00230BF08F0B86F800B02A
:1054D0000193A3071CBF24F00304043408EB040168
:1054E000261D01F801BC511E314218BF5142019BDB
:1054F00048F804001CBF0E40B618F3B100FB02F3DD
:10550000F418AAF1080294420DD90293002DB9D0E3
:1055100021462846FFF70CFF00282CDBD5F8048035
:10552000D5F814A0029B39680A1D3A6008EB060002
:105530001A46096804F010FF26462DB1AA7E1AB952
:105540001BF0400F18BF4E46AAF108039E4201D837
:10555000B14624E7002D95D031462846FFF7E8FEF6
:10556000002808DBD5F80480D5F814A0F0E74846F9
:1055700001E06FF0020005B0BDE8F08F0B4610B5FA
:10558000426941680446FFF7F5FE0028A1BF236A7F
:10559000C01AE060002010BD0EB4F3B59DF81C5099
:1055A00090F83A60C768182D08BF002302A908BF09
:1055B00080F83A3008AB41F8043D0446FFF7DEFFBF
:1055C000182D03D094F83A3033B928B900221821A5
:1055D0002046FFF7D6FDE76084F83A6002B0BDE8E8
:1055E000F04003B070472DE9F3410D8803680035A2
:1055F00018BF01250E46044629461B689046984769
:10560000338884F83B50E38698F80030003318BFA5
:10561000012300210746A3760191E37E0091012238
:105620002046FFF7B9FF384602B0BDE8F081F0B57B
:10563000838EB1F90050076B89B000249D42064665
:105640008DF81F404FEA051511DA7B597A1973B1AD
:10565000D16861B105940494CA680392A1220191B2
:10566000029200922146FFF797FF20460FE00DF1CE
:105670001F03A1228DE80C000021059104910393E2
:1056800002927B593046FFF787FF4FF0FF3009B099
:10569000F0BD2DE9F0431C460423C36001F0200354
:1056A00089B005468846914603F0FF06BBB1012349
:1056B000A02980F83A3004D194E80600FFF72BFEC9
:1056C0009FE0A12904D194E80600FFF78CFF98E041
:1056D000A22940F094802168FFF7A9FF91E01829E2
:1056E00005D1036821469B6898473046AAE0838E1F
:1056F0009A4280F2A380036B03EB02135F68002FD2
:1057000000F09C803046C3B2013054F82320002AB8
:10571000F9D1012285F83A2013B92846B84770E03C
:10572000012B03D129462068B8476AE0022B04D137
:105730002A4694E80300B84763E0032B04D12B46C4
:1057400094E80700B8475CE0042B04D1009594E886
:105750000F00B84755E0052B06D12369009301954A
:1057600094E80F00B8474CE0062B08D16369019319
:1057700023690093029594E80F00B84741E0072B96
:105780000AD1A36902936369019323690093039586
:1057900094E80F00B84734E0082B0CD1E369039379
:1057A000A36902936369019323690093049594E8C4
:1057B0000F00B84725E0092B0ED1236A0493E36953
:1057C0000393A36902936369019323690093059589
:1057D00094E80F00B84714E00A2B10D1636A0593D0
:1057E000236A0493E3690393A369029363690193B2
:1057F00023690093069594E80F00B84701E04FF045
:10580000FF304FFA88F80023B8F1000F85F83A30DE
:1058100017DA6A682B6AD0502B6B03EB091308F078
:105820003F01B3F9082041F040012846FFF7A9FCE9
:1058300002462846FFF75DFC104603E04FF0FF30BC
:1058400000E0002009B0BDE8F0830CB413B504AC4F
:1058500002AB54F8042B43F8044DFFF78BFD02B064
:10586000BDE8104002B070472DE9F843074688466E
:10587000154602F10A0916460024731B4445DBB2A3
:105880002CD24E452ED03A5D06F8012B110604F1BC
:10589000010002F00F0307D45A1E02421EBF5A42F3
:1058A0001040C0181C18E8E702F0BF02A12A05D179
:1058B000384405F045F802340444DEE782071CBF93
:1058C00020F0030004305A1E3C58043002421EBF30
:1058D0005A421040C01804FB0304CEE70020E854ED
:1058E000BDE8F8834FF0FF30BDE8F8832DE9F041C3
:1058F0004FF0000804460E4615464746B04542D2D2
:105900000A2F46D014F8082012F0800F08F1010089
:1059100002F00F010FFA87FE0BD14B1E03421EBF90
:105920004A4210404018231845F82E3001EB000879
:1059300026E002F0BF02A12A08D1204445F82E003B
:1059400004F0FEFF08F10208804419E083071CBF41
:1059500020F00300043004EB000C225845F82EC060
:1059600004307B1C4F1E07421CBF4F423840DBB245
:1059700018BF4018271845F8237002FB01081F467E
:105980007B1CDFB2BAE73BB2002045F82300BDE83C
:10599000F0814FF0FF30BDE8F08110B58CB01446B7
:1059A00001AAFFF7A3FF002803DB01A92046FFF7A8
:1059B000A6FB0CB010BD10B500234418A04204D0C3
:1059C00010F8012B13449BB2F8E7581880B210BDB1
:1059D00038B5436804461971104818606168E06A78
:1059E000E3688B600368CA801D68638D4022A84706
:1059F000002812DBE268236A1A44402A0CD9637E2D
:105A000053B9E06A61680368403A1D68638D4031AC
:105A1000A84700EAE07038BD002038BD5555AAAA55
:105A200013B5034609B1592200E09522D86A8DF8D2
:105A3000072002685B8D14680DF107010122A04761
:105A40000028B4BF6FF06500002002B010BDFFFF5A
:105A50002DE9F7430446C06A904602680F46556830
:105A600003B1A38C01220DF10501A847051E61DBDE
:105A700002D14FF0FF3061E0DFF8C89000269DF8BA
:105A80000530E06A1B0643EA16264E45238D026860
:105A900008D055680DF105010122A847051E49DB14
:105AA000EDD1E6E756686168226AB047002843DB1B
:105AB000236A9D42DDDB63681B783B706768266A5A
:105AC000B7F902307D68A8F800303146E560384605
:105AD000FFF771FF8046E06AC6F14006B5420368F1
